{
  "contractName": "QuizToken",
  "abi": [
    {
      "inputs": [
        {
          "internalType": "uint256",
          "name": "initialSupply",
          "type": "uint256"
        },
        {
          "internalType": "string",
          "name": "sampleQuizId",
          "type": "string"
        },
        {
          "internalType": "string[]",
          "name": "sampleQuizAnswers",
          "type": "string[]"
        }
      ],
      "stateMutability": "nonpayable",
      "type": "constructor"
    },
    {
      "anonymous": false,
      "inputs": [
        {
          "indexed": true,
          "internalType": "address",
          "name": "owner",
          "type": "address"
        },
        {
          "indexed": true,
          "internalType": "address",
          "name": "spender",
          "type": "address"
        },
        {
          "indexed": false,
          "internalType": "uint256",
          "name": "value",
          "type": "uint256"
        }
      ],
      "name": "Approval",
      "type": "event"
    },
    {
      "anonymous": false,
      "inputs": [
        {
          "indexed": true,
          "internalType": "address",
          "name": "previousOwner",
          "type": "address"
        },
        {
          "indexed": true,
          "internalType": "address",
          "name": "newOwner",
          "type": "address"
        }
      ],
      "name": "OwnershipTransferred",
      "type": "event"
    },
    {
      "anonymous": false,
      "inputs": [
        {
          "indexed": true,
          "internalType": "address",
          "name": "_from",
          "type": "address"
        },
        {
          "indexed": false,
          "internalType": "uint256",
          "name": "_reward",
          "type": "uint256"
        }
      ],
      "name": "QuizResult",
      "type": "event"
    },
    {
      "anonymous": false,
      "inputs": [
        {
          "indexed": true,
          "internalType": "address",
          "name": "from",
          "type": "address"
        },
        {
          "indexed": true,
          "internalType": "address",
          "name": "to",
          "type": "address"
        },
        {
          "indexed": false,
          "internalType": "uint256",
          "name": "value",
          "type": "uint256"
        }
      ],
      "name": "Transfer",
      "type": "event"
    },
    {
      "inputs": [
        {
          "internalType": "address",
          "name": "owner",
          "type": "address"
        },
        {
          "internalType": "address",
          "name": "spender",
          "type": "address"
        }
      ],
      "name": "allowance",
      "outputs": [
        {
          "internalType": "uint256",
          "name": "",
          "type": "uint256"
        }
      ],
      "stateMutability": "view",
      "type": "function",
      "constant": true
    },
    {
      "inputs": [
        {
          "internalType": "address",
          "name": "spender",
          "type": "address"
        },
        {
          "internalType": "uint256",
          "name": "amount",
          "type": "uint256"
        }
      ],
      "name": "approve",
      "outputs": [
        {
          "internalType": "bool",
          "name": "",
          "type": "bool"
        }
      ],
      "stateMutability": "nonpayable",
      "type": "function"
    },
    {
      "inputs": [
        {
          "internalType": "address",
          "name": "account",
          "type": "address"
        }
      ],
      "name": "balanceOf",
      "outputs": [
        {
          "internalType": "uint256",
          "name": "",
          "type": "uint256"
        }
      ],
      "stateMutability": "view",
      "type": "function",
      "constant": true
    },
    {
      "inputs": [],
      "name": "decimals",
      "outputs": [
        {
          "internalType": "uint8",
          "name": "",
          "type": "uint8"
        }
      ],
      "stateMutability": "view",
      "type": "function",
      "constant": true
    },
    {
      "inputs": [
        {
          "internalType": "address",
          "name": "spender",
          "type": "address"
        },
        {
          "internalType": "uint256",
          "name": "subtractedValue",
          "type": "uint256"
        }
      ],
      "name": "decreaseAllowance",
      "outputs": [
        {
          "internalType": "bool",
          "name": "",
          "type": "bool"
        }
      ],
      "stateMutability": "nonpayable",
      "type": "function"
    },
    {
      "inputs": [
        {
          "internalType": "address",
          "name": "spender",
          "type": "address"
        },
        {
          "internalType": "uint256",
          "name": "addedValue",
          "type": "uint256"
        }
      ],
      "name": "increaseAllowance",
      "outputs": [
        {
          "internalType": "bool",
          "name": "",
          "type": "bool"
        }
      ],
      "stateMutability": "nonpayable",
      "type": "function"
    },
    {
      "inputs": [],
      "name": "name",
      "outputs": [
        {
          "internalType": "string",
          "name": "",
          "type": "string"
        }
      ],
      "stateMutability": "view",
      "type": "function",
      "constant": true
    },
    {
      "inputs": [],
      "name": "owner",
      "outputs": [
        {
          "internalType": "address",
          "name": "",
          "type": "address"
        }
      ],
      "stateMutability": "view",
      "type": "function",
      "constant": true
    },
    {
      "inputs": [],
      "name": "renounceOwnership",
      "outputs": [],
      "stateMutability": "nonpayable",
      "type": "function"
    },
    {
      "inputs": [],
      "name": "symbol",
      "outputs": [
        {
          "internalType": "string",
          "name": "",
          "type": "string"
        }
      ],
      "stateMutability": "view",
      "type": "function",
      "constant": true
    },
    {
      "inputs": [],
      "name": "tokenOwner",
      "outputs": [
        {
          "internalType": "address",
          "name": "",
          "type": "address"
        }
      ],
      "stateMutability": "view",
      "type": "function",
      "constant": true
    },
    {
      "inputs": [],
      "name": "totalSupply",
      "outputs": [
        {
          "internalType": "uint256",
          "name": "",
          "type": "uint256"
        }
      ],
      "stateMutability": "view",
      "type": "function",
      "constant": true
    },
    {
      "inputs": [
        {
          "internalType": "address",
          "name": "recipient",
          "type": "address"
        },
        {
          "internalType": "uint256",
          "name": "amount",
          "type": "uint256"
        }
      ],
      "name": "transfer",
      "outputs": [
        {
          "internalType": "bool",
          "name": "",
          "type": "bool"
        }
      ],
      "stateMutability": "nonpayable",
      "type": "function"
    },
    {
      "inputs": [
        {
          "internalType": "address",
          "name": "sender",
          "type": "address"
        },
        {
          "internalType": "address",
          "name": "recipient",
          "type": "address"
        },
        {
          "internalType": "uint256",
          "name": "amount",
          "type": "uint256"
        }
      ],
      "name": "transferFrom",
      "outputs": [
        {
          "internalType": "bool",
          "name": "",
          "type": "bool"
        }
      ],
      "stateMutability": "nonpayable",
      "type": "function"
    },
    {
      "inputs": [
        {
          "internalType": "address",
          "name": "newOwner",
          "type": "address"
        }
      ],
      "name": "transferOwnership",
      "outputs": [],
      "stateMutability": "nonpayable",
      "type": "function"
    },
    {
      "inputs": [
        {
          "internalType": "address",
          "name": "",
          "type": "address"
        }
      ],
      "name": "userLastClaim",
      "outputs": [
        {
          "internalType": "uint256",
          "name": "",
          "type": "uint256"
        }
      ],
      "stateMutability": "view",
      "type": "function",
      "constant": true
    },
    {
      "inputs": [
        {
          "internalType": "string",
          "name": "quizId",
          "type": "string"
        },
        {
          "internalType": "string[]",
          "name": "answers",
          "type": "string[]"
        }
      ],
      "name": "submitQuiz",
      "outputs": [
        {
          "internalType": "bool",
          "name": "",
          "type": "bool"
        }
      ],
      "stateMutability": "nonpayable",
      "type": "function"
    },
    {
      "inputs": [
        {
          "internalType": "uint256",
          "name": "amount",
          "type": "uint256"
        }
      ],
      "name": "setRewardPerCorrectAnswer",
      "outputs": [],
      "stateMutability": "nonpayable",
      "type": "function"
    },
    {
      "inputs": [
        {
          "internalType": "string",
          "name": "quizId",
          "type": "string"
        },
        {
          "internalType": "string[]",
          "name": "correctAnswers",
          "type": "string[]"
        }
      ],
      "name": "createNewQuiz",
      "outputs": [],
      "stateMutability": "nonpayable",
      "type": "function"
    },
    {
      "inputs": [
        {
          "internalType": "string",
          "name": "quizId",
          "type": "string"
        }
      ],
      "name": "getQuizAnswers",
      "outputs": [
        {
          "internalType": "string[]",
          "name": "anwsers",
          "type": "string[]"
        }
      ],
      "stateMutability": "view",
      "type": "function",
      "constant": true
    }
  ],
  "bytecode": "0x608060405260016007553480156200001657600080fd5b506040516200373d3803806200373d83398181016040528101906200003c91906200086c565b6040518060400160405280600981526020017f5175697a546f6b656e00000000000000000000000000000000000000000000008152506040518060400160405280600481526020017f5155495a000000000000000000000000000000000000000000000000000000008152508160039080519060200190620000c092919062000413565b508060049080519060200190620000d992919062000413565b505050620000fc620000f0620001b960201b60201c565b620001c160201b60201c565b6200013833620001116200028760201b60201c565b600a6200011f919062000a96565b856200012c919062000ae7565b6200029060201b60201c565b806009836040516200014b919062000b95565b908152602001604051809103902090805190602001906200016e929190620004a4565b5033600660006101000a81548173ffffffffffffffffffffffffffffffffffffffff021916908373ffffffffffffffffffffffffffffffffffffffff16021790555050505062000d21565b600033905090565b6000600560009054906101000a900473ffffffffffffffffffffffffffffffffffffffff16905081600560006101000a81548173ffffffffffffffffffffffffffffffffffffffff021916908373ffffffffffffffffffffffffffffffffffffffff1602179055508173ffffffffffffffffffffffffffffffffffffffff168173ffffffffffffffffffffffffffffffffffffffff167f8be0079c531659141344cd1fd0a4f28419497f9722a3daafe3b4186f6b6457e060405160405180910390a35050565b60006012905090565b600073ffffffffffffffffffffffffffffffffffffffff168273ffffffffffffffffffffffffffffffffffffffff16141562000303576040517f08c379a0000000000000000000000000000000000000000000000000000000008152600401620002fa9062000c0f565b60405180910390fd5b62000317600083836200040960201b60201c565b80600260008282546200032b919062000c31565b92505081905550806000808473ffffffffffffffffffffffffffffffffffffffff1673ffffffffffffffffffffffffffffffffffffffff168152602001908152602001600020600082825462000382919062000c31565b925050819055508173ffffffffffffffffffffffffffffffffffffffff16600073ffffffffffffffffffffffffffffffffffffffff167fddf252ad1be2c89b69c2b068fc378daa952ba7f163c4a11628f55a4df523b3ef83604051620003e9919062000c9f565b60405180910390a362000405600083836200040e60201b60201c565b5050565b505050565b505050565b828054620004219062000ceb565b90600052602060002090601f01602090048101928262000445576000855562000491565b82601f106200046057805160ff191683800117855562000491565b8280016001018555821562000491579182015b828111156200049057825182559160200191906001019062000473565b5b509050620004a091906200050b565b5090565b828054828255906000526020600020908101928215620004f8579160200282015b82811115620004f7578251829080519060200190620004e692919062000413565b5091602001919060010190620004c5565b5b5090506200050791906200052a565b5090565b5b80821115620005265760008160009055506001016200050c565b5090565b5b808211156200054e576000818162000544919062000552565b506001016200052b565b5090565b508054620005609062000ceb565b6000825580601f1062000574575062000595565b601f0160209004906000526020600020908101906200059491906200050b565b5b50565b6000604051905090565b600080fd5b600080fd5b6000819050919050565b620005c181620005ac565b8114620005cd57600080fd5b50565b600081519050620005e181620005b6565b92915050565b600080fd5b600080fd5b6000601f19601f8301169050919050565b7f4e487b7100000000000000000000000000000000000000000000000000000000600052604160045260246000fd5b6200063c82620005f1565b810181811067ffffffffffffffff821117156200065e576200065d62000602565b5b80604052505050565b60006200067362000598565b905062000681828262000631565b919050565b600067ffffffffffffffff821115620006a457620006a362000602565b5b620006af82620005f1565b9050602081019050919050565b60005b83811015620006dc578082015181840152602081019050620006bf565b83811115620006ec576000848401525b50505050565b600062000709620007038462000686565b62000667565b905082815260208101848484011115620007285762000727620005ec565b5b62000735848285620006bc565b509392505050565b600082601f830112620007555762000754620005e7565b5b815162000767848260208601620006f2565b91505092915050565b600067ffffffffffffffff8211156200078e576200078d62000602565b5b602082029050602081019050919050565b600080fd5b6000620007bb620007b58462000770565b62000667565b90508083825260208201905060208402830185811115620007e157620007e06200079f565b5b835b818110156200082f57805167ffffffffffffffff8111156200080a5762000809620005e7565b5b8086016200081989826200073d565b85526020850194505050602081019050620007e3565b5050509392505050565b600082601f830112620008515762000850620005e7565b5b815162000863848260208601620007a4565b91505092915050565b600080600060608486031215620008885762000887620005a2565b5b60006200089886828701620005d0565b935050602084015167ffffffffffffffff811115620008bc57620008bb620005a7565b5b620008ca868287016200073d565b925050604084015167ffffffffffffffff811115620008ee57620008ed620005a7565b5b620008fc8682870162000839565b9150509250925092565b7f4e487b7100000000000000000000000000000000000000000000000000000000600052601160045260246000fd5b60008160011c9050919050565b6000808291508390505b600185111562000994578086048111156200096c576200096b62000906565b5b60018516156200097c5780820291505b80810290506200098c8562000935565b94506200094c565b94509492505050565b600082620009af576001905062000a82565b81620009bf576000905062000a82565b8160018114620009d85760028114620009e35762000a19565b600191505062000a82565b60ff841115620009f857620009f762000906565b5b8360020a91508482111562000a125762000a1162000906565b5b5062000a82565b5060208310610133831016604e8410600b841016171562000a535782820a90508381111562000a4d5762000a4c62000906565b5b62000a82565b62000a62848484600162000942565b9250905081840481111562000a7c5762000a7b62000906565b5b81810290505b9392505050565b600060ff82169050919050565b600062000aa382620005ac565b915062000ab08362000a89565b925062000adf7fffffffffffffffffffffffffffffffffffffffffffffffffffffffffffffffff84846200099d565b905092915050565b600062000af482620005ac565b915062000b0183620005ac565b9250817fffffffffffffffffffffffffffffffffffffffffffffffffffffffffffffffff048311821515161562000b3d5762000b3c62000906565b5b828202905092915050565b600081519050919050565b600081905092915050565b600062000b6b8262000b48565b62000b77818562000b53565b935062000b89818560208601620006bc565b80840191505092915050565b600062000ba3828462000b5e565b915081905092915050565b600082825260208201905092915050565b7f45524332303a206d696e7420746f20746865207a65726f206164647265737300600082015250565b600062000bf7601f8362000bae565b915062000c048262000bbf565b602082019050919050565b6000602082019050818103600083015262000c2a8162000be8565b9050919050565b600062000c3e82620005ac565b915062000c4b83620005ac565b9250827fffffffffffffffffffffffffffffffffffffffffffffffffffffffffffffffff0382111562000c835762000c8262000906565b5b828201905092915050565b62000c9981620005ac565b82525050565b600060208201905062000cb6600083018462000c8e565b92915050565b7f4e487b7100000000000000000000000000000000000000000000000000000000600052602260045260246000fd5b6000600282049050600182168062000d0457607f821691505b6020821081141562000d1b5762000d1a62000cbc565b5b50919050565b612a0c8062000d316000396000f3fe608060405234801561001057600080fd5b506004361061012c5760003560e01c8063715018a6116100ad578063a9059cbb11610071578063a9059cbb1461035b578063a9729b251461038b578063dd62ed3e146103bb578063f2fde38b146103eb578063f3fffdb7146104075761012c565b8063715018a6146102c75780638da5cb5b146102d157806395d89b41146102ef578063a3e676101461030d578063a457c2d71461032b5761012c565b806335f6eb53116100f457806335f6eb53146101eb578063385795ac1461021b5780633950935114610237578063425a51771461026757806370a08231146102975761012c565b806306fdde0314610131578063095ea7b31461014f57806318160ddd1461017f57806323b872dd1461019d578063313ce567146101cd575b600080fd5b610139610423565b60405161014691906118b2565b60405180910390f35b6101696004803603810190610164919061197c565b6104b5565b60405161017691906119d7565b60405180910390f35b6101876104d3565b6040516101949190611a01565b60405180910390f35b6101b760048036038101906101b29190611a1c565b6104dd565b6040516101c491906119d7565b60405180910390f35b6101d56105d5565b6040516101e29190611a8b565b60405180910390f35b61020560048036038101906102009190611cc1565b6105de565b60405161021291906119d7565b60405180910390f35b61023560048036038101906102309190611cc1565b610884565b005b610251600480360381019061024c919061197c565b610937565b60405161025e91906119d7565b60405180910390f35b610281600480360381019061027c9190611d39565b6109e3565b60405161028e9190611a01565b60405180910390f35b6102b160048036038101906102ac9190611d39565b6109fb565b6040516102be9190611a01565b60405180910390f35b6102cf610a43565b005b6102d9610acb565b6040516102e69190611d75565b60405180910390f35b6102f7610af5565b60405161030491906118b2565b60405180910390f35b610315610b87565b6040516103229190611d75565b60405180910390f35b6103456004803603810190610340919061197c565b610bad565b60405161035291906119d7565b60405180910390f35b6103756004803603810190610370919061197c565b610c98565b60405161038291906119d7565b60405180910390f35b6103a560048036038101906103a09190611d90565b610cb6565b6040516103b29190611ee5565b60405180910390f35b6103d560048036038101906103d09190611f07565b610e29565b6040516103e29190611a01565b60405180910390f35b61040560048036038101906104009190611d39565b610eb0565b005b610421600480360381019061041c9190611f47565b610fa8565b005b60606003805461043290611fa3565b80601f016020809104026020016040519081016040528092919081815260200182805461045e90611fa3565b80156104ab5780601f10610480576101008083540402835291602001916104ab565b820191906000526020600020905b81548152906001019060200180831161048e57829003601f168201915b5050505050905090565b60006104c96104c261102e565b8484611036565b6001905092915050565b6000600254905090565b60006104ea848484611201565b6000600160008673ffffffffffffffffffffffffffffffffffffffff1673ffffffffffffffffffffffffffffffffffffffff168152602001908152602001600020600061053561102e565b73ffffffffffffffffffffffffffffffffffffffff1673ffffffffffffffffffffffffffffffffffffffff168152602001908152602001600020549050828110156105b5576040517f08c379a00000000000000000000000000000000000000000000000000000000081526004016105ac90612047565b60405180910390fd5b6105c9856105c161102e565b858403611036565b60019150509392505050565b60006012905090565b600080600860003373ffffffffffffffffffffffffffffffffffffffff1673ffffffffffffffffffffffffffffffffffffffff16815260200190815260200160002054148061067757506078600860003373ffffffffffffffffffffffffffffffffffffffff1673ffffffffffffffffffffffffffffffffffffffff16815260200190815260200160002054426106759190612096565b115b6106b6576040517f08c379a00000000000000000000000000000000000000000000000000000000081526004016106ad9061213c565b60405180910390fd5b60006009846040516106c89190612198565b90815260200160405180910390208054905090506000805b828110156107b3576009866040516106f89190612198565b90815260200160405180910390208181548110610718576107176121af565b5b906000526020600020016040516020016107329190612272565b6040516020818303038152906040528051906020012085828151811061075b5761075a6121af565b5b60200260200101516040516020016107739190612198565b6040516020818303038152906040528051906020012014156107a0576007548261079d9190612289565b91505b80806107ab906122df565b9150506106e0565b50600081111561082a576107e5336107c96105d5565b600a6107d5919061245b565b836107e091906124a6565b611482565b42600860003373ffffffffffffffffffffffffffffffffffffffff1673ffffffffffffffffffffffffffffffffffffffff168152602001908152602001600020819055505b3373ffffffffffffffffffffffffffffffffffffffff167f8065cbdcb37cfc6f7da086dfeacf81e76f1c132e541c5b5b1d1bffb79ef51010826040516108709190611a01565b60405180910390a260019250505092915050565b61088c61102e565b73ffffffffffffffffffffffffffffffffffffffff166108aa610acb565b73ffffffffffffffffffffffffffffffffffffffff1614610900576040517f08c379a00000000000000000000000000000000000000000000000000000000081526004016108f79061254c565b60405180910390fd5b806009836040516109119190612198565b908152602001604051809103902090805190602001906109329291906116b2565b505050565b60006109d961094461102e565b84846001600061095261102e565b73ffffffffffffffffffffffffffffffffffffffff1673ffffffffffffffffffffffffffffffffffffffff16815260200190815260200160002060008873ffffffffffffffffffffffffffffffffffffffff1673ffffffffffffffffffffffffffffffffffffffff168152602001908152602001600020546109d49190612289565b611036565b6001905092915050565b60086020528060005260406000206000915090505481565b60008060008373ffffffffffffffffffffffffffffffffffffffff1673ffffffffffffffffffffffffffffffffffffffff168152602001908152602001600020549050919050565b610a4b61102e565b73ffffffffffffffffffffffffffffffffffffffff16610a69610acb565b73ffffffffffffffffffffffffffffffffffffffff1614610abf576040517f08c379a0000000000000000000000000000000000000000000000000000000008152600401610ab69061254c565b60405180910390fd5b610ac960006115e2565b565b6000600560009054906101000a900473ffffffffffffffffffffffffffffffffffffffff16905090565b606060048054610b0490611fa3565b80601f0160208091040260200160405190810160405280929190818152602001828054610b3090611fa3565b8015610b7d5780601f10610b5257610100808354040283529160200191610b7d565b820191906000526020600020905b815481529060010190602001808311610b6057829003601f168201915b5050505050905090565b600660009054906101000a900473ffffffffffffffffffffffffffffffffffffffff1681565b60008060016000610bbc61102e565b73ffffffffffffffffffffffffffffffffffffffff1673ffffffffffffffffffffffffffffffffffffffff16815260200190815260200160002060008573ffffffffffffffffffffffffffffffffffffffff1673ffffffffffffffffffffffffffffffffffffffff16815260200190815260200160002054905082811015610c79576040517f08c379a0000000000000000000000000000000000000000000000000000000008152600401610c70906125de565b60405180910390fd5b610c8d610c8461102e565b85858403611036565b600191505092915050565b6000610cac610ca561102e565b8484611201565b6001905092915050565b6060610cc061102e565b73ffffffffffffffffffffffffffffffffffffffff16610cde610acb565b73ffffffffffffffffffffffffffffffffffffffff1614610d34576040517f08c379a0000000000000000000000000000000000000000000000000000000008152600401610d2b9061254c565b60405180910390fd5b600982604051610d449190612198565b9081526020016040518091039020805480602002602001604051908101604052809291908181526020016000905b82821015610e1e578382906000526020600020018054610d9190611fa3565b80601f0160208091040260200160405190810160405280929190818152602001828054610dbd90611fa3565b8015610e0a5780601f10610ddf57610100808354040283529160200191610e0a565b820191906000526020600020905b815481529060010190602001808311610ded57829003601f168201915b505050505081526020019060010190610d72565b505050509050919050565b6000600160008473ffffffffffffffffffffffffffffffffffffffff1673ffffffffffffffffffffffffffffffffffffffff16815260200190815260200160002060008373ffffffffffffffffffffffffffffffffffffffff1673ffffffffffffffffffffffffffffffffffffffff16815260200190815260200160002054905092915050565b610eb861102e565b73ffffffffffffffffffffffffffffffffffffffff16610ed6610acb565b73ffffffffffffffffffffffffffffffffffffffff1614610f2c576040517f08c379a0000000000000000000000000000000000000000000000000000000008152600401610f239061254c565b60405180910390fd5b600073ffffffffffffffffffffffffffffffffffffffff168173ffffffffffffffffffffffffffffffffffffffff161415610f9c576040517f08c379a0000000000000000000000000000000000000000000000000000000008152600401610f9390612670565b60405180910390fd5b610fa5816115e2565b50565b610fb061102e565b73ffffffffffffffffffffffffffffffffffffffff16610fce610acb565b73ffffffffffffffffffffffffffffffffffffffff1614611024576040517f08c379a000000000000000000000000000000000000000000000000000000000815260040161101b9061254c565b60405180910390fd5b8060078190555050565b600033905090565b600073ffffffffffffffffffffffffffffffffffffffff168373ffffffffffffffffffffffffffffffffffffffff1614156110a6576040517f08c379a000000000000000000000000000000000000000000000000000000000815260040161109d90612702565b60405180910390fd5b600073ffffffffffffffffffffffffffffffffffffffff168273ffffffffffffffffffffffffffffffffffffffff161415611116576040517f08c379a000000000000000000000000000000000000000000000000000000000815260040161110d90612794565b60405180910390fd5b80600160008573ffffffffffffffffffffffffffffffffffffffff1673ffffffffffffffffffffffffffffffffffffffff16815260200190815260200160002060008473ffffffffffffffffffffffffffffffffffffffff1673ffffffffffffffffffffffffffffffffffffffff168152602001908152602001600020819055508173ffffffffffffffffffffffffffffffffffffffff168373ffffffffffffffffffffffffffffffffffffffff167f8c5be1e5ebec7d5bd14f71427d1e84f3dd0314c0f7b2291e5b200ac8c7c3b925836040516111f49190611a01565b60405180910390a3505050565b600073ffffffffffffffffffffffffffffffffffffffff168373ffffffffffffffffffffffffffffffffffffffff161415611271576040517f08c379a000000000000000000000000000000000000000000000000000000000815260040161126890612826565b60405180910390fd5b600073ffffffffffffffffffffffffffffffffffffffff168273ffffffffffffffffffffffffffffffffffffffff1614156112e1576040517f08c379a00000000000000000000000000000000000000000000000000000000081526004016112d8906128b8565b60405180910390fd5b6112ec8383836116a8565b60008060008573ffffffffffffffffffffffffffffffffffffffff1673ffffffffffffffffffffffffffffffffffffffff16815260200190815260200160002054905081811015611372576040517f08c379a00000000000000000000000000000000000000000000000000000000081526004016113699061294a565b60405180910390fd5b8181036000808673ffffffffffffffffffffffffffffffffffffffff1673ffffffffffffffffffffffffffffffffffffffff16815260200190815260200160002081905550816000808573ffffffffffffffffffffffffffffffffffffffff1673ffffffffffffffffffffffffffffffffffffffff16815260200190815260200160002060008282546114059190612289565b925050819055508273ffffffffffffffffffffffffffffffffffffffff168473ffffffffffffffffffffffffffffffffffffffff167fddf252ad1be2c89b69c2b068fc378daa952ba7f163c4a11628f55a4df523b3ef846040516114699190611a01565b60405180910390a361147c8484846116ad565b50505050565b600073ffffffffffffffffffffffffffffffffffffffff168273ffffffffffffffffffffffffffffffffffffffff1614156114f2576040517f08c379a00000000000000000000000000000000000000000000000000000000081526004016114e9906129b6565b60405180910390fd5b6114fe600083836116a8565b80600260008282546115109190612289565b92505081905550806000808473ffffffffffffffffffffffffffffffffffffffff1673ffffffffffffffffffffffffffffffffffffffff16815260200190815260200160002060008282546115659190612289565b925050819055508173ffffffffffffffffffffffffffffffffffffffff16600073ffffffffffffffffffffffffffffffffffffffff167fddf252ad1be2c89b69c2b068fc378daa952ba7f163c4a11628f55a4df523b3ef836040516115ca9190611a01565b60405180910390a36115de600083836116ad565b5050565b6000600560009054906101000a900473ffffffffffffffffffffffffffffffffffffffff16905081600560006101000a81548173ffffffffffffffffffffffffffffffffffffffff021916908373ffffffffffffffffffffffffffffffffffffffff1602179055508173ffffffffffffffffffffffffffffffffffffffff168173ffffffffffffffffffffffffffffffffffffffff167f8be0079c531659141344cd1fd0a4f28419497f9722a3daafe3b4186f6b6457e060405160405180910390a35050565b505050565b505050565b828054828255906000526020600020908101928215611701579160200282015b828111156117005782518290805190602001906116f0929190611712565b50916020019190600101906116d2565b5b50905061170e9190611798565b5090565b82805461171e90611fa3565b90600052602060002090601f0160209004810192826117405760008555611787565b82601f1061175957805160ff1916838001178555611787565b82800160010185558215611787579182015b8281111561178657825182559160200191906001019061176b565b5b50905061179491906117bc565b5090565b5b808211156117b857600081816117af91906117d9565b50600101611799565b5090565b5b808211156117d55760008160009055506001016117bd565b5090565b5080546117e590611fa3565b6000825580601f106117f75750611816565b601f01602090049060005260206000209081019061181591906117bc565b5b50565b600081519050919050565b600082825260208201905092915050565b60005b83811015611853578082015181840152602081019050611838565b83811115611862576000848401525b50505050565b6000601f19601f8301169050919050565b600061188482611819565b61188e8185611824565b935061189e818560208601611835565b6118a781611868565b840191505092915050565b600060208201905081810360008301526118cc8184611879565b905092915050565b6000604051905090565b600080fd5b600080fd5b600073ffffffffffffffffffffffffffffffffffffffff82169050919050565b6000611913826118e8565b9050919050565b61192381611908565b811461192e57600080fd5b50565b6000813590506119408161191a565b92915050565b6000819050919050565b61195981611946565b811461196457600080fd5b50565b60008135905061197681611950565b92915050565b60008060408385031215611993576119926118de565b5b60006119a185828601611931565b92505060206119b285828601611967565b9150509250929050565b60008115159050919050565b6119d1816119bc565b82525050565b60006020820190506119ec60008301846119c8565b92915050565b6119fb81611946565b82525050565b6000602082019050611a1660008301846119f2565b92915050565b600080600060608486031215611a3557611a346118de565b5b6000611a4386828701611931565b9350506020611a5486828701611931565b9250506040611a6586828701611967565b9150509250925092565b600060ff82169050919050565b611a8581611a6f565b82525050565b6000602082019050611aa06000830184611a7c565b92915050565b600080fd5b600080fd5b7f4e487b7100000000000000000000000000000000000000000000000000000000600052604160045260246000fd5b611ae882611868565b810181811067ffffffffffffffff82111715611b0757611b06611ab0565b5b80604052505050565b6000611b1a6118d4565b9050611b268282611adf565b919050565b600067ffffffffffffffff821115611b4657611b45611ab0565b5b611b4f82611868565b9050602081019050919050565b82818337600083830152505050565b6000611b7e611b7984611b2b565b611b10565b905082815260208101848484011115611b9a57611b99611aab565b5b611ba5848285611b5c565b509392505050565b600082601f830112611bc257611bc1611aa6565b5b8135611bd2848260208601611b6b565b91505092915050565b600067ffffffffffffffff821115611bf657611bf5611ab0565b5b602082029050602081019050919050565b600080fd5b6000611c1f611c1a84611bdb565b611b10565b90508083825260208201905060208402830185811115611c4257611c41611c07565b5b835b81811015611c8957803567ffffffffffffffff811115611c6757611c66611aa6565b5b808601611c748982611bad565b85526020850194505050602081019050611c44565b5050509392505050565b600082601f830112611ca857611ca7611aa6565b5b8135611cb8848260208601611c0c565b91505092915050565b60008060408385031215611cd857611cd76118de565b5b600083013567ffffffffffffffff811115611cf657611cf56118e3565b5b611d0285828601611bad565b925050602083013567ffffffffffffffff811115611d2357611d226118e3565b5b611d2f85828601611c93565b9150509250929050565b600060208284031215611d4f57611d4e6118de565b5b6000611d5d84828501611931565b91505092915050565b611d6f81611908565b82525050565b6000602082019050611d8a6000830184611d66565b92915050565b600060208284031215611da657611da56118de565b5b600082013567ffffffffffffffff811115611dc457611dc36118e3565b5b611dd084828501611bad565b91505092915050565b600081519050919050565b600082825260208201905092915050565b6000819050602082019050919050565b600082825260208201905092915050565b6000611e2182611819565b611e2b8185611e05565b9350611e3b818560208601611835565b611e4481611868565b840191505092915050565b6000611e5b8383611e16565b905092915050565b6000602082019050919050565b6000611e7b82611dd9565b611e858185611de4565b935083602082028501611e9785611df5565b8060005b85811015611ed35784840389528151611eb48582611e4f565b9450611ebf83611e63565b925060208a01995050600181019050611e9b565b50829750879550505050505092915050565b60006020820190508181036000830152611eff8184611e70565b905092915050565b60008060408385031215611f1e57611f1d6118de565b5b6000611f2c85828601611931565b9250506020611f3d85828601611931565b9150509250929050565b600060208284031215611f5d57611f5c6118de565b5b6000611f6b84828501611967565b91505092915050565b7f4e487b7100000000000000000000000000000000000000000000000000000000600052602260045260246000fd5b60006002820490506001821680611fbb57607f821691505b60208210811415611fcf57611fce611f74565b5b50919050565b7f45524332303a207472616e7366657220616d6f756e742065786365656473206160008201527f6c6c6f77616e6365000000000000000000000000000000000000000000000000602082015250565b6000612031602883611824565b915061203c82611fd5565b604082019050919050565b6000602082019050818103600083015261206081612024565b9050919050565b7f4e487b7100000000000000000000000000000000000000000000000000000000600052601160045260246000fd5b60006120a182611946565b91506120ac83611946565b9250828210156120bf576120be612067565b5b828203905092915050565b7f436c61696d206f6e6c7920617661696c61626c65206f6e63652065766572792060008201527f32206d696e757465732e00000000000000000000000000000000000000000000602082015250565b6000612126602a83611824565b9150612131826120ca565b604082019050919050565b6000602082019050818103600083015261215581612119565b9050919050565b600081905092915050565b600061217282611819565b61217c818561215c565b935061218c818560208601611835565b80840191505092915050565b60006121a48284612167565b915081905092915050565b7f4e487b7100000000000000000000000000000000000000000000000000000000600052603260045260246000fd5b60008190508160005260206000209050919050565b6000815461220081611fa3565b61220a818661215c565b94506001821660008114612225576001811461223657612269565b60ff19831686528186019350612269565b61223f856121de565b60005b8381101561226157815481890152600182019150602081019050612242565b838801955050505b50505092915050565b600061227e82846121f3565b915081905092915050565b600061229482611946565b915061229f83611946565b9250827fffffffffffffffffffffffffffffffffffffffffffffffffffffffffffffffff038211156122d4576122d3612067565b5b828201905092915050565b60006122ea82611946565b91507fffffffffffffffffffffffffffffffffffffffffffffffffffffffffffffffff82141561231d5761231c612067565b5b600182019050919050565b60008160011c9050919050565b6000808291508390505b600185111561237f5780860481111561235b5761235a612067565b5b600185161561236a5780820291505b808102905061237885612328565b945061233f565b94509492505050565b6000826123985760019050612454565b816123a65760009050612454565b81600181146123bc57600281146123c6576123f5565b6001915050612454565b60ff8411156123d8576123d7612067565b5b8360020a9150848211156123ef576123ee612067565b5b50612454565b5060208310610133831016604e8410600b841016171561242a5782820a90508381111561242557612424612067565b5b612454565b6124378484846001612335565b9250905081840481111561244e5761244d612067565b5b81810290505b9392505050565b600061246682611946565b915061247183611a6f565b925061249e7fffffffffffffffffffffffffffffffffffffffffffffffffffffffffffffffff8484612388565b905092915050565b60006124b182611946565b91506124bc83611946565b9250817fffffffffffffffffffffffffffffffffffffffffffffffffffffffffffffffff04831182151516156124f5576124f4612067565b5b828202905092915050565b7f4f776e61626c653a2063616c6c6572206973206e6f7420746865206f776e6572600082015250565b6000612536602083611824565b915061254182612500565b602082019050919050565b6000602082019050818103600083015261256581612529565b9050919050565b7f45524332303a2064656372656173656420616c6c6f77616e63652062656c6f7760008201527f207a65726f000000000000000000000000000000000000000000000000000000602082015250565b60006125c8602583611824565b91506125d38261256c565b604082019050919050565b600060208201905081810360008301526125f7816125bb565b9050919050565b7f4f776e61626c653a206e6577206f776e657220697320746865207a65726f206160008201527f6464726573730000000000000000000000000000000000000000000000000000602082015250565b600061265a602683611824565b9150612665826125fe565b604082019050919050565b600060208201905081810360008301526126898161264d565b9050919050565b7f45524332303a20617070726f76652066726f6d20746865207a65726f2061646460008201527f7265737300000000000000000000000000000000000000000000000000000000602082015250565b60006126ec602483611824565b91506126f782612690565b604082019050919050565b6000602082019050818103600083015261271b816126df565b9050919050565b7f45524332303a20617070726f766520746f20746865207a65726f20616464726560008201527f7373000000000000000000000000000000000000000000000000000000000000602082015250565b600061277e602283611824565b915061278982612722565b604082019050919050565b600060208201905081810360008301526127ad81612771565b9050919050565b7f45524332303a207472616e736665722066726f6d20746865207a65726f20616460008201527f6472657373000000000000000000000000000000000000000000000000000000602082015250565b6000612810602583611824565b915061281b826127b4565b604082019050919050565b6000602082019050818103600083015261283f81612803565b9050919050565b7f45524332303a207472616e7366657220746f20746865207a65726f206164647260008201527f6573730000000000000000000000000000000000000000000000000000000000602082015250565b60006128a2602383611824565b91506128ad82612846565b604082019050919050565b600060208201905081810360008301526128d181612895565b9050919050565b7f45524332303a207472616e7366657220616d6f756e742065786365656473206260008201527f616c616e63650000000000000000000000000000000000000000000000000000602082015250565b6000612934602683611824565b915061293f826128d8565b604082019050919050565b6000602082019050818103600083015261296381612927565b9050919050565b7f45524332303a206d696e7420746f20746865207a65726f206164647265737300600082015250565b60006129a0601f83611824565b91506129ab8261296a565b602082019050919050565b600060208201905081810360008301526129cf81612993565b905091905056fea264697066735822122074f96740b70d4832d741caaacce38eca4ae47ed0e727bbd2d17280efc642848664736f6c63430008090033",
  "immutableReferences": {},
  "source": "// contracts/Quiz.sol\n// SPDX-License-Identifier: MIT\npragma solidity ^0.8.0;\n\nimport \"@openzeppelin/contracts/token/ERC20/ERC20.sol\";\nimport \"@openzeppelin/contracts/access/Ownable.sol\";\n\ncontract QuizToken is ERC20, Ownable {\n    address public tokenOwner;\n    uint256 private rewardPerCorrectAnswer = 1;\n    mapping(address => uint256) public userLastClaim;\n    mapping(string => string[]) private quizAnswers;\n\n    event QuizResult(address indexed _from, uint256 _reward);\n\n    // In case we want to restrict Quizzes resolution just once\n    // mapping(address => string[]) private userQuizzesResolved;\n\n    constructor(\n        uint256 initialSupply,\n        string memory sampleQuizId,\n        string[] memory sampleQuizAnswers\n    ) ERC20(\"QuizToken\", \"QUIZ\") {\n        _mint(msg.sender, initialSupply * 10**decimals());\n\n        quizAnswers[sampleQuizId] = sampleQuizAnswers;\n\n        tokenOwner = msg.sender;\n    }\n\n    function submitQuiz(string memory quizId, string[] memory answers) public returns (bool) {\n        // Claim can be limited to minutes, hours or even days...\n        require(\n            userLastClaim[msg.sender] == 0 || block.timestamp - userLastClaim[msg.sender] > 2 minutes,\n            \"Claim only available once every 2 minutes.\"\n        );\n\n        uint256 quizLength = quizAnswers[quizId].length;\n        uint256 claimable = 0;\n\n        for (uint256 i = 0; i < quizLength; i++) {\n            if (keccak256(abi.encodePacked(answers[i])) == keccak256(abi.encodePacked(quizAnswers[quizId][i]))) {\n                claimable = claimable + rewardPerCorrectAnswer;\n            }\n        }\n\n        if (claimable > 0) {\n            _mint(msg.sender, claimable * 10**decimals());\n\n            userLastClaim[msg.sender] = block.timestamp;\n        }\n\n        emit QuizResult(msg.sender, claimable);\n\n        return true;\n    }\n\n    function setRewardPerCorrectAnswer(uint256 amount) public onlyOwner {\n        rewardPerCorrectAnswer = amount;\n    }\n\n    function createNewQuiz(string memory quizId, string[] memory correctAnswers) public onlyOwner {\n        quizAnswers[quizId] = correctAnswers;\n    }\n\n    function getQuizAnswers(string memory quizId) public view onlyOwner returns (string[] memory anwsers) {\n        return quizAnswers[quizId];\n    }\n}\n",
  "sourcePath": "/Users/luislopez/Documents/git/others/ratherLabsTest/contracts/QuizToken.sol",
  "compiler": {
    "name": "solc",
    "version": "0.8.9+commit.e5eed63a.Emscripten.clang"
  },
  "schemaVersion": "3.4.3",
  "updatedAt": "2022-02-03T16:08:47.943Z",
  "networkType": "ethereum",
  "devdoc": {
    "kind": "dev",
    "methods": {
      "allowance(address,address)": {
        "details": "See {IERC20-allowance}."
      },
      "approve(address,uint256)": {
        "details": "See {IERC20-approve}. Requirements: - `spender` cannot be the zero address."
      },
      "balanceOf(address)": {
        "details": "See {IERC20-balanceOf}."
      },
      "decimals()": {
        "details": "Returns the number of decimals used to get its user representation. For example, if `decimals` equals `2`, a balance of `505` tokens should be displayed to a user as `5.05` (`505 / 10 ** 2`). Tokens usually opt for a value of 18, imitating the relationship between Ether and Wei. This is the value {ERC20} uses, unless this function is overridden; NOTE: This information is only used for _display_ purposes: it in no way affects any of the arithmetic of the contract, including {IERC20-balanceOf} and {IERC20-transfer}."
      },
      "decreaseAllowance(address,uint256)": {
        "details": "Atomically decreases the allowance granted to `spender` by the caller. This is an alternative to {approve} that can be used as a mitigation for problems described in {IERC20-approve}. Emits an {Approval} event indicating the updated allowance. Requirements: - `spender` cannot be the zero address. - `spender` must have allowance for the caller of at least `subtractedValue`."
      },
      "increaseAllowance(address,uint256)": {
        "details": "Atomically increases the allowance granted to `spender` by the caller. This is an alternative to {approve} that can be used as a mitigation for problems described in {IERC20-approve}. Emits an {Approval} event indicating the updated allowance. Requirements: - `spender` cannot be the zero address."
      },
      "name()": {
        "details": "Returns the name of the token."
      },
      "owner()": {
        "details": "Returns the address of the current owner."
      },
      "renounceOwnership()": {
        "details": "Leaves the contract without owner. It will not be possible to call `onlyOwner` functions anymore. Can only be called by the current owner. NOTE: Renouncing ownership will leave the contract without an owner, thereby removing any functionality that is only available to the owner."
      },
      "symbol()": {
        "details": "Returns the symbol of the token, usually a shorter version of the name."
      },
      "totalSupply()": {
        "details": "See {IERC20-totalSupply}."
      },
      "transfer(address,uint256)": {
        "details": "See {IERC20-transfer}. Requirements: - `recipient` cannot be the zero address. - the caller must have a balance of at least `amount`."
      },
      "transferFrom(address,address,uint256)": {
        "details": "See {IERC20-transferFrom}. Emits an {Approval} event indicating the updated allowance. This is not required by the EIP. See the note at the beginning of {ERC20}. Requirements: - `sender` and `recipient` cannot be the zero address. - `sender` must have a balance of at least `amount`. - the caller must have allowance for ``sender``'s tokens of at least `amount`."
      },
      "transferOwnership(address)": {
        "details": "Transfers ownership of the contract to a new account (`newOwner`). Can only be called by the current owner."
      }
    },
    "version": 1
  },
  "userdoc": {
    "kind": "user",
    "methods": {},
    "version": 1
  }
}